{
  "address": "0x7c099f590af91e2f59f6e3312836826CA6C05563",
  "abi": [
    {
      "inputs": [
        {
          "internalType": "address",
          "name": "_VRFCoordinator",
          "type": "address"
        },
        {
          "internalType": "address",
          "name": "_LinkToken",
          "type": "address"
        },
        {
          "internalType": "bytes32",
          "name": "_keyHash",
          "type": "bytes32"
        },
        {
          "internalType": "uint256",
          "name": "_fee",
          "type": "uint256"
        }
      ],
      "stateMutability": "nonpayable",
      "type": "constructor"
    },
    {
      "anonymous": false,
      "inputs": [
        {
          "indexed": true,
          "internalType": "address",
          "name": "owner",
          "type": "address"
        },
        {
          "indexed": true,
          "internalType": "address",
          "name": "approved",
          "type": "address"
        },
        {
          "indexed": true,
          "internalType": "uint256",
          "name": "tokenId",
          "type": "uint256"
        }
      ],
      "name": "Approval",
      "type": "event"
    },
    {
      "anonymous": false,
      "inputs": [
        {
          "indexed": true,
          "internalType": "address",
          "name": "owner",
          "type": "address"
        },
        {
          "indexed": true,
          "internalType": "address",
          "name": "operator",
          "type": "address"
        },
        {
          "indexed": false,
          "internalType": "bool",
          "name": "approved",
          "type": "bool"
        }
      ],
      "name": "ApprovalForAll",
      "type": "event"
    },
    {
      "anonymous": false,
      "inputs": [
        {
          "indexed": true,
          "internalType": "uint256",
          "name": "tokenId",
          "type": "uint256"
        },
        {
          "indexed": false,
          "internalType": "string",
          "name": "tokenURI",
          "type": "string"
        }
      ],
      "name": "CreatedRandomSVG",
      "type": "event"
    },
    {
      "anonymous": false,
      "inputs": [
        {
          "indexed": true,
          "internalType": "uint256",
          "name": "tokenId",
          "type": "uint256"
        },
        {
          "indexed": false,
          "internalType": "uint256",
          "name": "randomNumber",
          "type": "uint256"
        }
      ],
      "name": "CreatedUnfinishedRandomSVG",
      "type": "event"
    },
    {
      "anonymous": false,
      "inputs": [
        {
          "indexed": true,
          "internalType": "address",
          "name": "from",
          "type": "address"
        },
        {
          "indexed": true,
          "internalType": "address",
          "name": "to",
          "type": "address"
        },
        {
          "indexed": true,
          "internalType": "uint256",
          "name": "tokenId",
          "type": "uint256"
        }
      ],
      "name": "Transfer",
      "type": "event"
    },
    {
      "anonymous": false,
      "inputs": [
        {
          "indexed": true,
          "internalType": "bytes32",
          "name": "requestId",
          "type": "bytes32"
        },
        {
          "indexed": true,
          "internalType": "uint256",
          "name": "tokenId",
          "type": "uint256"
        }
      ],
      "name": "requestedRandomSVG",
      "type": "event"
    },
    {
      "inputs": [
        {
          "internalType": "address",
          "name": "to",
          "type": "address"
        },
        {
          "internalType": "uint256",
          "name": "tokenId",
          "type": "uint256"
        }
      ],
      "name": "approve",
      "outputs": [],
      "stateMutability": "nonpayable",
      "type": "function"
    },
    {
      "inputs": [
        {
          "internalType": "address",
          "name": "owner",
          "type": "address"
        }
      ],
      "name": "balanceOf",
      "outputs": [
        {
          "internalType": "uint256",
          "name": "",
          "type": "uint256"
        }
      ],
      "stateMutability": "view",
      "type": "function"
    },
    {
      "inputs": [
        {
          "internalType": "uint256",
          "name": "",
          "type": "uint256"
        }
      ],
      "name": "colors",
      "outputs": [
        {
          "internalType": "string",
          "name": "",
          "type": "string"
        }
      ],
      "stateMutability": "view",
      "type": "function"
    },
    {
      "inputs": [],
      "name": "create",
      "outputs": [
        {
          "internalType": "bytes32",
          "name": "requestId",
          "type": "bytes32"
        }
      ],
      "stateMutability": "nonpayable",
      "type": "function"
    },
    {
      "inputs": [],
      "name": "fee",
      "outputs": [
        {
          "internalType": "uint256",
          "name": "",
          "type": "uint256"
        }
      ],
      "stateMutability": "view",
      "type": "function"
    },
    {
      "inputs": [
        {
          "internalType": "uint256",
          "name": "_tokenId",
          "type": "uint256"
        }
      ],
      "name": "finishMint",
      "outputs": [],
      "stateMutability": "nonpayable",
      "type": "function"
    },
    {
      "inputs": [
        {
          "internalType": "string",
          "name": "_imageURI",
          "type": "string"
        }
      ],
      "name": "formatTokenURI",
      "outputs": [
        {
          "internalType": "string",
          "name": "",
          "type": "string"
        }
      ],
      "stateMutability": "pure",
      "type": "function"
    },
    {
      "inputs": [
        {
          "internalType": "uint256",
          "name": "_randomNumber",
          "type": "uint256"
        }
      ],
      "name": "generatePath",
      "outputs": [
        {
          "internalType": "string",
          "name": "pathSvg",
          "type": "string"
        }
      ],
      "stateMutability": "view",
      "type": "function"
    },
    {
      "inputs": [
        {
          "internalType": "uint256",
          "name": "_randomNumber",
          "type": "uint256"
        }
      ],
      "name": "generatePathCommand",
      "outputs": [
        {
          "internalType": "string",
          "name": "pathCommand",
          "type": "string"
        }
      ],
      "stateMutability": "view",
      "type": "function"
    },
    {
      "inputs": [
        {
          "internalType": "uint256",
          "name": "_randomNumber",
          "type": "uint256"
        }
      ],
      "name": "generateSVG",
      "outputs": [
        {
          "internalType": "string",
          "name": "finalSvg",
          "type": "string"
        }
      ],
      "stateMutability": "view",
      "type": "function"
    },
    {
      "inputs": [
        {
          "internalType": "uint256",
          "name": "tokenId",
          "type": "uint256"
        }
      ],
      "name": "getApproved",
      "outputs": [
        {
          "internalType": "address",
          "name": "",
          "type": "address"
        }
      ],
      "stateMutability": "view",
      "type": "function"
    },
    {
      "inputs": [
        {
          "internalType": "address",
          "name": "owner",
          "type": "address"
        },
        {
          "internalType": "address",
          "name": "operator",
          "type": "address"
        }
      ],
      "name": "isApprovedForAll",
      "outputs": [
        {
          "internalType": "bool",
          "name": "",
          "type": "bool"
        }
      ],
      "stateMutability": "view",
      "type": "function"
    },
    {
      "inputs": [],
      "name": "keyHash",
      "outputs": [
        {
          "internalType": "bytes32",
          "name": "",
          "type": "bytes32"
        }
      ],
      "stateMutability": "view",
      "type": "function"
    },
    {
      "inputs": [],
      "name": "maxNumberOfPath",
      "outputs": [
        {
          "internalType": "uint256",
          "name": "",
          "type": "uint256"
        }
      ],
      "stateMutability": "view",
      "type": "function"
    },
    {
      "inputs": [],
      "name": "maxNumberOfPathCommands",
      "outputs": [
        {
          "internalType": "uint256",
          "name": "",
          "type": "uint256"
        }
      ],
      "stateMutability": "view",
      "type": "function"
    },
    {
      "inputs": [],
      "name": "name",
      "outputs": [
        {
          "internalType": "string",
          "name": "",
          "type": "string"
        }
      ],
      "stateMutability": "view",
      "type": "function"
    },
    {
      "inputs": [
        {
          "internalType": "uint256",
          "name": "tokenId",
          "type": "uint256"
        }
      ],
      "name": "ownerOf",
      "outputs": [
        {
          "internalType": "address",
          "name": "",
          "type": "address"
        }
      ],
      "stateMutability": "view",
      "type": "function"
    },
    {
      "inputs": [
        {
          "internalType": "uint256",
          "name": "",
          "type": "uint256"
        }
      ],
      "name": "pathCommands",
      "outputs": [
        {
          "internalType": "string",
          "name": "",
          "type": "string"
        }
      ],
      "stateMutability": "view",
      "type": "function"
    },
    {
      "inputs": [
        {
          "internalType": "bytes32",
          "name": "requestId",
          "type": "bytes32"
        },
        {
          "internalType": "uint256",
          "name": "randomness",
          "type": "uint256"
        }
      ],
      "name": "rawFulfillRandomness",
      "outputs": [],
      "stateMutability": "nonpayable",
      "type": "function"
    },
    {
      "inputs": [
        {
          "internalType": "bytes32",
          "name": "",
          "type": "bytes32"
        }
      ],
      "name": "requestIdToSender",
      "outputs": [
        {
          "internalType": "address",
          "name": "",
          "type": "address"
        }
      ],
      "stateMutability": "view",
      "type": "function"
    },
    {
      "inputs": [
        {
          "internalType": "bytes32",
          "name": "",
          "type": "bytes32"
        }
      ],
      "name": "requestIdToTokenId",
      "outputs": [
        {
          "internalType": "uint256",
          "name": "",
          "type": "uint256"
        }
      ],
      "stateMutability": "view",
      "type": "function"
    },
    {
      "inputs": [
        {
          "internalType": "address",
          "name": "from",
          "type": "address"
        },
        {
          "internalType": "address",
          "name": "to",
          "type": "address"
        },
        {
          "internalType": "uint256",
          "name": "tokenId",
          "type": "uint256"
        }
      ],
      "name": "safeTransferFrom",
      "outputs": [],
      "stateMutability": "nonpayable",
      "type": "function"
    },
    {
      "inputs": [
        {
          "internalType": "address",
          "name": "from",
          "type": "address"
        },
        {
          "internalType": "address",
          "name": "to",
          "type": "address"
        },
        {
          "internalType": "uint256",
          "name": "tokenId",
          "type": "uint256"
        },
        {
          "internalType": "bytes",
          "name": "_data",
          "type": "bytes"
        }
      ],
      "name": "safeTransferFrom",
      "outputs": [],
      "stateMutability": "nonpayable",
      "type": "function"
    },
    {
      "inputs": [
        {
          "internalType": "address",
          "name": "operator",
          "type": "address"
        },
        {
          "internalType": "bool",
          "name": "approved",
          "type": "bool"
        }
      ],
      "name": "setApprovalForAll",
      "outputs": [],
      "stateMutability": "nonpayable",
      "type": "function"
    },
    {
      "inputs": [],
      "name": "size",
      "outputs": [
        {
          "internalType": "uint256",
          "name": "",
          "type": "uint256"
        }
      ],
      "stateMutability": "view",
      "type": "function"
    },
    {
      "inputs": [
        {
          "internalType": "bytes4",
          "name": "interfaceId",
          "type": "bytes4"
        }
      ],
      "name": "supportsInterface",
      "outputs": [
        {
          "internalType": "bool",
          "name": "",
          "type": "bool"
        }
      ],
      "stateMutability": "view",
      "type": "function"
    },
    {
      "inputs": [
        {
          "internalType": "string",
          "name": "_svg",
          "type": "string"
        }
      ],
      "name": "svgToImageURI",
      "outputs": [
        {
          "internalType": "string",
          "name": "",
          "type": "string"
        }
      ],
      "stateMutability": "pure",
      "type": "function"
    },
    {
      "inputs": [],
      "name": "symbol",
      "outputs": [
        {
          "internalType": "string",
          "name": "",
          "type": "string"
        }
      ],
      "stateMutability": "view",
      "type": "function"
    },
    {
      "inputs": [],
      "name": "tokenCounter",
      "outputs": [
        {
          "internalType": "uint256",
          "name": "",
          "type": "uint256"
        }
      ],
      "stateMutability": "view",
      "type": "function"
    },
    {
      "inputs": [
        {
          "internalType": "uint256",
          "name": "",
          "type": "uint256"
        }
      ],
      "name": "tokenIdToRandomNumber",
      "outputs": [
        {
          "internalType": "uint256",
          "name": "",
          "type": "uint256"
        }
      ],
      "stateMutability": "view",
      "type": "function"
    },
    {
      "inputs": [
        {
          "internalType": "uint256",
          "name": "tokenId",
          "type": "uint256"
        }
      ],
      "name": "tokenURI",
      "outputs": [
        {
          "internalType": "string",
          "name": "",
          "type": "string"
        }
      ],
      "stateMutability": "view",
      "type": "function"
    },
    {
      "inputs": [
        {
          "internalType": "address",
          "name": "from",
          "type": "address"
        },
        {
          "internalType": "address",
          "name": "to",
          "type": "address"
        },
        {
          "internalType": "uint256",
          "name": "tokenId",
          "type": "uint256"
        }
      ],
      "name": "transferFrom",
      "outputs": [],
      "stateMutability": "nonpayable",
      "type": "function"
    }
  ],
  "transactionHash": "0x5b2941f9f98cd15fd395dda6351c93a6045fc8d7cebcf65b8d50fc0aeeadce30",
  "args": [
    "0xb3dCcb4Cf7a26f6cf6B120Cf5A73875B7BBc655B",
    "0x01BE23585060835E02B77ef475b0Cc51aA1e0709",
    "0x2ed0feb3e7fd2022120aa84fab1945545a9f2ffc9076fd6156fa96eaff4c1311",
    "100000000000000000"
  ],
  "solcInputHash": "534b5d98f19cef096f342ad0ec87c559",
  "bytecode": "0x60c06040523480156200001157600080fd5b5060405162004f8038038062004f808339818101604052810190620000379190620005c3565b83836040518060400160405280600e81526020017f4d6f64756c61722052616e646f6d0000000000000000000000000000000000008152506040518060400160405280600481526020017f4d445252000000000000000000000000000000000000000000000000000000008152508160009080519060200190620000bd92919062000392565b508060019080519060200190620000d692919062000392565b5050508173ffffffffffffffffffffffffffffffffffffffff1660a08173ffffffffffffffffffffffffffffffffffffffff1660601b815250508073ffffffffffffffffffffffffffffffffffffffff1660808173ffffffffffffffffffffffffffffffffffffffff1660601b81525050505080600981905550816008819055506000600a81905550600a600b819055506005600c819055506101f4600d8190555060405180604001604052806040518060400160405280600181526020017f4d0000000000000000000000000000000000000000000000000000000000000081525081526020016040518060400160405280600181526020017f4c00000000000000000000000000000000000000000000000000000000000000815250815250600e9060026200020992919062000423565b506040518060c001604052806040518060400160405280600381526020017f726564000000000000000000000000000000000000000000000000000000000081525081526020016040518060400160405280600481526020017f626c75650000000000000000000000000000000000000000000000000000000081525081526020016040518060400160405280600581526020017f677265656e00000000000000000000000000000000000000000000000000000081525081526020016040518060400160405280600681526020017f79656c6c6f77000000000000000000000000000000000000000000000000000081525081526020016040518060400160405280600581526020017f626c61636b00000000000000000000000000000000000000000000000000000081525081526020016040518060400160405280600581526020017f7768697465000000000000000000000000000000000000000000000000000000815250815250600f906006620003879291906200048a565b50505050506200072a565b828054620003a09062000677565b90600052602060002090601f016020900481019282620003c4576000855562000410565b82601f10620003df57805160ff191683800117855562000410565b8280016001018555821562000410579182015b828111156200040f578251825591602001919060010190620003f2565b5b5090506200041f9190620004f1565b5090565b82805482825590600052602060002090810192821562000477579160200282015b82811115620004765782518290805190602001906200046592919062000392565b509160200191906001019062000444565b5b50905062000486919062000510565b5090565b828054828255906000526020600020908101928215620004de579160200282015b82811115620004dd578251829080519060200190620004cc92919062000392565b5091602001919060010190620004ab565b5b509050620004ed919062000510565b5090565b5b808211156200050c576000816000905550600101620004f2565b5090565b5b808211156200053457600081816200052a919062000538565b5060010162000511565b5090565b508054620005469062000677565b6000825580601f106200055a57506200057b565b601f0160209004906000526020600020908101906200057a9190620004f1565b5b50565b6000815190506200058f81620006dc565b92915050565b600081519050620005a681620006f6565b92915050565b600081519050620005bd8162000710565b92915050565b60008060008060808587031215620005da57600080fd5b6000620005ea878288016200057e565b9450506020620005fd878288016200057e565b9350506040620006108782880162000595565b92505060606200062387828801620005ac565b91505092959194509250565b60006200063c826200064d565b9050919050565b6000819050919050565b600073ffffffffffffffffffffffffffffffffffffffff82169050919050565b6000819050919050565b600060028204905060018216806200069057607f821691505b60208210811415620006a757620006a6620006ad565b5b50919050565b7f4e487b7100000000000000000000000000000000000000000000000000000000600052602260045260246000fd5b620006e7816200062f565b8114620006f357600080fd5b50565b620007018162000643565b81146200070d57600080fd5b50565b6200071b816200066d565b81146200072757600080fd5b50565b60805160601c60a05160601c6148236200075d600039600081816111b001526125760152600061253a01526148236000f3fe608060405234801561001057600080fd5b50600436106101f05760003560e01c806370a082311161010f578063b88d4fde116100a2578063d082e38111610071578063d082e3811461063d578063ddca3f431461065b578063e985e9c514610679578063efc81a8c146106a9576101f0565b8063b88d4fde14610591578063bd11f69d146105ad578063c68b49d1146105dd578063c87b56dd1461060d576101f0565b8063955968d4116100de578063955968d4146104f757806395d89b41146105275780639c1cd79514610545578063a22cb46514610575576101f0565b806370a082311461045d57806371aee1931461048d57806394985ddd146104bd578063949d225d146104d9576101f0565b806333af59891161018757806361728f391161015657806361728f39146103c3578063624194c7146103e15780636352211e146103fd5780636dcee4ca1461042d576101f0565b806333af59891461033b57806342842e0e1461036b57806348e896ab14610387578063568a1844146103a5576101f0565b8063219c0eee116101c3578063219c0eee1461028f57806322881f88146102bf57806323b872dd146102ef57806330d871c61461030b576101f0565b806301ffc9a7146101f557806306fdde0314610225578063081812fc14610243578063095ea7b314610273575b600080fd5b61020f600480360381019061020a91906130e5565b6106c7565b60405161021c9190613f36565b60405180910390f35b61022d6107a9565b60405161023a9190613fda565b60405180910390f35b61025d60048036038101906102589190613178565b61083b565b60405161026a9190613e91565b60405180910390f35b61028d6004803603810190610288919061301b565b6108c0565b005b6102a960048036038101906102a49190613080565b6109d8565b6040516102b69190613e91565b60405180910390f35b6102d960048036038101906102d49190613080565b610a0b565b6040516102e6919061427c565b60405180910390f35b61030960048036038101906103049190612f15565b610a23565b005b61032560048036038101906103209190613137565b610a83565b6040516103329190613fda565b60405180910390f35b61035560048036038101906103509190613178565b610b1c565b6040516103629190613fda565b60405180910390f35b61038560048036038101906103809190612f15565b610d0e565b005b61038f610d2e565b60405161039c919061427c565b60405180910390f35b6103ad610d34565b6040516103ba919061427c565b60405180910390f35b6103cb610d3a565b6040516103d89190613f51565b60405180910390f35b6103fb60048036038101906103f69190613178565b610d40565b005b61041760048036038101906104129190613178565b610eaf565b6040516104249190613e91565b60405180910390f35b61044760048036038101906104429190613178565b610f61565b6040516104549190613fda565b60405180910390f35b61047760048036038101906104729190612eb0565b611063565b604051610484919061427c565b60405180910390f35b6104a760048036038101906104a29190613137565b61111b565b6040516104b49190613fda565b60405180910390f35b6104d760048036038101906104d291906130a9565b6111ae565b005b6104e161124a565b6040516104ee919061427c565b60405180910390f35b610511600480360381019061050c9190613178565b611250565b60405161051e9190613fda565b60405180910390f35b61052f6112fc565b60405161053c9190613fda565b60405180910390f35b61055f600480360381019061055a9190613178565b61138e565b60405161056c919061427c565b60405180910390f35b61058f600480360381019061058a9190612fdf565b6113a6565b005b6105ab60048036038101906105a69190612f64565b611527565b005b6105c760048036038101906105c29190613178565b611589565b6040516105d49190613fda565b60405180910390f35b6105f760048036038101906105f29190613178565b611635565b6040516106049190613fda565b60405180910390f35b61062760048036038101906106229190613178565b6117f4565b6040516106349190613fda565b60405180910390f35b610645611946565b604051610652919061427c565b60405180910390f35b61066361194c565b604051610670919061427c565b60405180910390f35b610693600480360381019061068e9190612ed9565b611952565b6040516106a09190613f36565b60405180910390f35b6106b16119e6565b6040516106be9190613f51565b60405180910390f35b60007f80ac58cd000000000000000000000000000000000000000000000000000000007bffffffffffffffffffffffffffffffffffffffffffffffffffffffff1916827bffffffffffffffffffffffffffffffffffffffffffffffffffffffff1916148061079257507f5b5e139f000000000000000000000000000000000000000000000000000000007bffffffffffffffffffffffffffffffffffffffffffffffffffffffff1916827bffffffffffffffffffffffffffffffffffffffffffffffffffffffff1916145b806107a257506107a182611ab3565b5b9050919050565b6060600080546107b8906145ad565b80601f01602080910402602001604051908101604052809291908181526020018280546107e4906145ad565b80156108315780601f1061080657610100808354040283529160200191610831565b820191906000526020600020905b81548152906001019060200180831161081457829003601f168201915b5050505050905090565b600061084682611b1d565b610885576040517f08c379a000000000000000000000000000000000000000000000000000000000815260040161087c9061417c565b60405180910390fd5b6004600083815260200190815260200160002060009054906101000a900473ffffffffffffffffffffffffffffffffffffffff169050919050565b60006108cb82610eaf565b90508073ffffffffffffffffffffffffffffffffffffffff168373ffffffffffffffffffffffffffffffffffffffff16141561093c576040517f08c379a0000000000000000000000000000000000000000000000000000000008152600401610933906141fc565b60405180910390fd5b8073ffffffffffffffffffffffffffffffffffffffff1661095b611b89565b73ffffffffffffffffffffffffffffffffffffffff16148061098a575061098981610984611b89565b611952565b5b6109c9576040517f08c379a00000000000000000000000000000000000000000000000000000000081526004016109c0906140bc565b60405180910390fd5b6109d38383611b91565b505050565b60106020528060005260406000206000915054906101000a900473ffffffffffffffffffffffffffffffffffffffff1681565b60116020528060005260406000206000915090505481565b610a34610a2e611b89565b82611c4a565b610a73576040517f08c379a0000000000000000000000000000000000000000000000000000000008152600401610a6a9061421c565b60405180910390fd5b610a7e838383611d28565b505050565b606060006040518060400160405280601a81526020017f646174613a696d6167652f7376672b786d6c3b6261736536342c00000000000081525090506000610ae984604051602001610ad59190613d20565b604051602081830303815290604052611f84565b905060008282604051602001610b00929190613d37565b6040516020818303038152906040529050809350505050919050565b606060006001600c5484610b30919061463c565b610b3a9190614394565b90506040518060400160405280600981526020017f3c7061746820643d220000000000000000000000000000000000000000000000815250915060005b81811015610c025760008482600d54610b909190614394565b604051602001610ba1929190614297565b6040516020818303038152906040528051906020012060001c90506000610bc782611635565b90508481604051602001610bdc929190613d37565b604051602081830303815290604052945050508080610bfa906145df565b915050610b77565b506000600f808054905085610c17919061463c565b81548110610c4e577f4e487b7100000000000000000000000000000000000000000000000000000000600052603260045260246000fd5b906000526020600020018054610c63906145ad565b80601f0160208091040260200160405190810160405280929190818152602001828054610c8f906145ad565b8015610cdc5780601f10610cb157610100808354040283529160200191610cdc565b820191906000526020600020905b815481529060010190602001808311610cbf57829003601f168201915b505050505090508281604051602001610cf6929190613dad565b60405160208183030381529060405292505050919050565b610d2983838360405180602001604052806000815250611527565b505050565b600c5481565b600b5481565b60085481565b6000610d4b826117f4565b511115610d8d576040517f08c379a0000000000000000000000000000000000000000000000000000000008152600401610d849061407c565b60405180910390fd5b80600a5411610dd1576040517f08c379a0000000000000000000000000000000000000000000000000000000008152600401610dc89061423c565b60405180910390fd5b6000601260008381526020019081526020016000205411610e27576040517f08c379a0000000000000000000000000000000000000000000000000000000008152600401610e1e9061425c565b60405180910390fd5b6000601260008381526020019081526020016000205490506000610e4a82610f61565b90506000610e5782610a83565b90506000610e648261111b565b9050610e708582612123565b847f15a6487b7915a7116ce2a61d43b17e9b47484b1931f3c79f2f3d139b307b389384604051610ea09190613fda565b60405180910390a25050505050565b6000806002600084815260200190815260200160002060009054906101000a900473ffffffffffffffffffffffffffffffffffffffff169050600073ffffffffffffffffffffffffffffffffffffffff168173ffffffffffffffffffffffffffffffffffffffff161415610f58576040517f08c379a0000000000000000000000000000000000000000000000000000000008152600401610f4f906140fc565b60405180910390fd5b80915050919050565b606060006001600b5484610f75919061463c565b610f7f9190614394565b9050610f8c600d54612197565b610f97600d54612197565b604051602001610fa8929190613e09565b604051602081830303815290604052915060005b8181101561103a5760008482604051602001610fd9929190614297565b6040516020818303038152906040528051906020012060001c90506000610fff82610b1c565b90508481604051602001611014929190613d37565b604051602081830303815290604052945050508080611032906145df565b915050610fbc565b508160405160200161104c9190613de7565b604051602081830303815290604052915050919050565b60008073ffffffffffffffffffffffffffffffffffffffff168273ffffffffffffffffffffffffffffffffffffffff1614156110d4576040517f08c379a00000000000000000000000000000000000000000000000000000000081526004016110cb906140dc565b60405180910390fd5b600360008373ffffffffffffffffffffffffffffffffffffffff1673ffffffffffffffffffffffffffffffffffffffff168152602001908152602001600020549050919050565b606060006040518060400160405280601d81526020017f646174613a6170706c69636174696f6e2f6a736f6e3b6261736536342c000000815250905060006111818460405160200161116d9190613e4e565b604051602081830303815290604052611f84565b90508181604051602001611196929190613d37565b60405160208183030381529060405292505050919050565b7f000000000000000000000000000000000000000000000000000000000000000073ffffffffffffffffffffffffffffffffffffffff163373ffffffffffffffffffffffffffffffffffffffff161461123c576040517f08c379a0000000000000000000000000000000000000000000000000000000008152600401611233906141dc565b60405180910390fd5b611246828261236c565b5050565b600d5481565b600e818154811061126057600080fd5b90600052602060002001600091509050805461127b906145ad565b80601f01602080910402602001604051908101604052809291908181526020018280546112a7906145ad565b80156112f45780601f106112c9576101008083540402835291602001916112f4565b820191906000526020600020905b8154815290600101906020018083116112d757829003601f168201915b505050505081565b60606001805461130b906145ad565b80601f0160208091040260200160405190810160405280929190818152602001828054611337906145ad565b80156113845780601f1061135957610100808354040283529160200191611384565b820191906000526020600020905b81548152906001019060200180831161136757829003601f168201915b5050505050905090565b60126020528060005260406000206000915090505481565b6113ae611b89565b73ffffffffffffffffffffffffffffffffffffffff168273ffffffffffffffffffffffffffffffffffffffff16141561141c576040517f08c379a00000000000000000000000000000000000000000000000000000000081526004016114139061405c565b60405180910390fd5b8060056000611429611b89565b73ffffffffffffffffffffffffffffffffffffffff1673ffffffffffffffffffffffffffffffffffffffff16815260200190815260200160002060008473ffffffffffffffffffffffffffffffffffffffff1673ffffffffffffffffffffffffffffffffffffffff16815260200190815260200160002060006101000a81548160ff0219169083151502179055508173ffffffffffffffffffffffffffffffffffffffff166114d6611b89565b73ffffffffffffffffffffffffffffffffffffffff167f17307eab39ab6107e8899845ad3d59bd9653f200f220920489ca2b5937696c318360405161151b9190613f36565b60405180910390a35050565b611538611532611b89565b83611c4a565b611577576040517f08c379a000000000000000000000000000000000000000000000000000000000815260040161156e9061421c565b60405180910390fd5b6115838484848461241c565b50505050565b600f818154811061159957600080fd5b9060005260206000200160009150905080546115b4906145ad565b80601f01602080910402602001604051908101604052809291908181526020018280546115e0906145ad565b801561162d5780601f106116025761010080835404028352916020019161162d565b820191906000526020600020905b81548152906001019060200180831161161057829003601f168201915b505050505081565b6060600e808054905083611649919061463c565b81548110611680577f4e487b7100000000000000000000000000000000000000000000000000000000600052603260045260246000fd5b906000526020600020018054611695906145ad565b80601f01602080910402602001604051908101604052809291908181526020018280546116c1906145ad565b801561170e5780601f106116e35761010080835404028352916020019161170e565b820191906000526020600020905b8154815290600101906020018083116116f157829003601f168201915b505050505090506000600d54836002600d5461172a9190614452565b60405160200161173b929190614297565b6040516020818303038152906040528051906020012060001c61175e919061463c565b90506000600d548460016002600d546117779190614452565b6117819190614394565b604051602001611792929190614297565b6040516020818303038152906040528051906020012060001c6117b5919061463c565b9050826117c183612197565b6117ca83612197565b6040516020016117dc93929190613d5b565b60405160208183030381529060405292505050919050565b60606117ff82611b1d565b61183e576040517f08c379a00000000000000000000000000000000000000000000000000000000081526004016118359061415c565b60405180910390fd5b600060066000848152602001908152602001600020805461185e906145ad565b80601f016020809104026020016040519081016040528092919081815260200182805461188a906145ad565b80156118d75780601f106118ac576101008083540402835291602001916118d7565b820191906000526020600020905b8154815290600101906020018083116118ba57829003601f168201915b5050505050905060006118e8612478565b90506000815114156118fe578192505050611941565b60008251111561193357808260405160200161191b929190613d37565b60405160208183030381529060405292505050611941565b61193c8461248f565b925050505b919050565b600a5481565b60095481565b6000600560008473ffffffffffffffffffffffffffffffffffffffff1673ffffffffffffffffffffffffffffffffffffffff16815260200190815260200160002060008373ffffffffffffffffffffffffffffffffffffffff1673ffffffffffffffffffffffffffffffffffffffff16815260200190815260200160002060009054906101000a900460ff16905092915050565b60006119f6600854600954612536565b9050336010600083815260200190815260200160002060006101000a81548173ffffffffffffffffffffffffffffffffffffffff021916908373ffffffffffffffffffffffffffffffffffffffff1602179055506000600a549050806011600084815260200190815260200160002081905550600a6000815480929190611a7c906145df565b919050555080827fb97343f1f2afc4959f818046ccae28fd7b05fcd2b7a7dc651cbb52a096cae03560405160405180910390a35090565b60007f01ffc9a7000000000000000000000000000000000000000000000000000000007bffffffffffffffffffffffffffffffffffffffffffffffffffffffff1916827bffffffffffffffffffffffffffffffffffffffffffffffffffffffff1916149050919050565b60008073ffffffffffffffffffffffffffffffffffffffff166002600084815260200190815260200160002060009054906101000a900473ffffffffffffffffffffffffffffffffffffffff1673ffffffffffffffffffffffffffffffffffffffff1614159050919050565b600033905090565b816004600083815260200190815260200160002060006101000a81548173ffffffffffffffffffffffffffffffffffffffff021916908373ffffffffffffffffffffffffffffffffffffffff160217905550808273ffffffffffffffffffffffffffffffffffffffff16611c0483610eaf565b73ffffffffffffffffffffffffffffffffffffffff167f8c5be1e5ebec7d5bd14f71427d1e84f3dd0314c0f7b2291e5b200ac8c7c3b92560405160405180910390a45050565b6000611c5582611b1d565b611c94576040517f08c379a0000000000000000000000000000000000000000000000000000000008152600401611c8b9061409c565b60405180910390fd5b6000611c9f83610eaf565b90508073ffffffffffffffffffffffffffffffffffffffff168473ffffffffffffffffffffffffffffffffffffffff161480611d0e57508373ffffffffffffffffffffffffffffffffffffffff16611cf68461083b565b73ffffffffffffffffffffffffffffffffffffffff16145b80611d1f5750611d1e8185611952565b5b91505092915050565b8273ffffffffffffffffffffffffffffffffffffffff16611d4882610eaf565b73ffffffffffffffffffffffffffffffffffffffff1614611d9e576040517f08c379a0000000000000000000000000000000000000000000000000000000008152600401611d959061419c565b60405180910390fd5b600073ffffffffffffffffffffffffffffffffffffffff168273ffffffffffffffffffffffffffffffffffffffff161415611e0e576040517f08c379a0000000000000000000000000000000000000000000000000000000008152600401611e059061403c565b60405180910390fd5b611e19838383612698565b611e24600082611b91565b6001600360008573ffffffffffffffffffffffffffffffffffffffff1673ffffffffffffffffffffffffffffffffffffffff1681526020019081526020016000206000828254611e7491906144ac565b925050819055506001600360008473ffffffffffffffffffffffffffffffffffffffff1673ffffffffffffffffffffffffffffffffffffffff1681526020019081526020016000206000828254611ecb9190614394565b92505081905550816002600083815260200190815260200160002060006101000a81548173ffffffffffffffffffffffffffffffffffffffff021916908373ffffffffffffffffffffffffffffffffffffffff160217905550808273ffffffffffffffffffffffffffffffffffffffff168473ffffffffffffffffffffffffffffffffffffffff167fddf252ad1be2c89b69c2b068fc378daa952ba7f163c4a11628f55a4df523b3ef60405160405180910390a4505050565b6060600082511415611fa75760405180602001604052806000815250905061211e565b60006040518060600160405280604081526020016147ae6040913990506000600360028551611fd69190614394565b611fe09190614421565b6004611fec9190614452565b90506000602082611ffd9190614394565b67ffffffffffffffff81111561203c577f4e487b7100000000000000000000000000000000000000000000000000000000600052604160045260246000fd5b6040519080825280601f01601f19166020018201604052801561206e5781602001600182028036833780820191505090505b509050818152600183018586518101602084015b818310156120dd576003830192508251603f8160121c168501518253600182019150603f81600c1c168501518253600182019150603f8160061c168501518253600182019150603f8116850151825360018201915050612082565b6003895106600181146120f7576002811461210757612112565b613d3d60f01b6002830352612112565b603d60f81b60018303525b50505050508093505050505b919050565b61212c82611b1d565b61216b576040517f08c379a00000000000000000000000000000000000000000000000000000000081526004016121629061411c565b60405180910390fd5b80600660008481526020019081526020016000209080519060200190612192929190612caa565b505050565b606060008214156121df576040518060400160405280600181526020017f30000000000000000000000000000000000000000000000000000000000000008152509050612367565b600082905060005b600082146122115780806121fa906145df565b915050600a8261220a9190614421565b91506121e7565b60008167ffffffffffffffff811115612253577f4e487b7100000000000000000000000000000000000000000000000000000000600052604160045260246000fd5b6040519080825280601f01601f1916602001820160405280156122855781602001600182028036833780820191505090505b50905060008290505b6000861461235f576001816122a391906144ac565b90506000600a80886122b59190614421565b6122bf9190614452565b876122ca91906144ac565b60306122d691906143ea565b905060008160f81b90508084848151811061231a577f4e487b7100000000000000000000000000000000000000000000000000000000600052603260045260246000fd5b60200101907effffffffffffffffffffffffffffffffffffffffffffffffffffffffffffff1916908160001a905350600a886123569190614421565b9750505061228e565b819450505050505b919050565b60006010600084815260200190815260200160002060009054906101000a900473ffffffffffffffffffffffffffffffffffffffff1690506000601160008581526020019081526020016000205490506123c6828261269d565b826012600083815260200190815260200160002081905550807faad5362ce528ed941024b95d4c18dfd49b8503e1f586a5c353631d98c2af41b78460405161240e919061427c565b60405180910390a250505050565b612427848484611d28565b612433848484846126bb565b612472576040517f08c379a000000000000000000000000000000000000000000000000000000000815260040161246990613ffc565b60405180910390fd5b50505050565b606060405180602001604052806000815250905090565b606061249a82611b1d565b6124d9576040517f08c379a00000000000000000000000000000000000000000000000000000000081526004016124d0906141bc565b60405180910390fd5b60006124e3612478565b90506000815111612503576040518060200160405280600081525061252e565b8061250d84612852565b60405160200161251e929190613d37565b6040516020818303038152906040525b915050919050565b60007f000000000000000000000000000000000000000000000000000000000000000073ffffffffffffffffffffffffffffffffffffffff16634000aea07f0000000000000000000000000000000000000000000000000000000000000000848660006040516020016125aa929190613f6c565b6040516020818303038152906040526040518463ffffffff1660e01b81526004016125d793929190613ef8565b602060405180830381600087803b1580156125f157600080fd5b505af1158015612605573d6000803e3d6000fd5b505050506040513d601f19601f820116820180604052508101906126299190613057565b50600061264c8460003060076000898152602001908152602001600020546129ff565b90506001600760008681526020019081526020016000205461266e9190614394565b600760008681526020019081526020016000208190555061268f8482612a3b565b91505092915050565b505050565b6126b7828260405180602001604052806000815250612a6e565b5050565b60006126dc8473ffffffffffffffffffffffffffffffffffffffff16612ac9565b15612845578373ffffffffffffffffffffffffffffffffffffffff1663150b7a02612705611b89565b8786866040518563ffffffff1660e01b81526004016127279493929190613eac565b602060405180830381600087803b15801561274157600080fd5b505af192505050801561277257506040513d601f19601f8201168201806040525081019061276f919061310e565b60015b6127f5573d80600081146127a2576040519150601f19603f3d011682016040523d82523d6000602084013e6127a7565b606091505b506000815114156127ed576040517f08c379a00000000000000000000000000000000000000000000000000000000081526004016127e490613ffc565b60405180910390fd5b805181602001fd5b63150b7a0260e01b7bffffffffffffffffffffffffffffffffffffffffffffffffffffffff1916817bffffffffffffffffffffffffffffffffffffffffffffffffffffffff19161491505061284a565b600190505b949350505050565b6060600082141561289a576040518060400160405280600181526020017f300000000000000000000000000000000000000000000000000000000000000081525090506129fa565b600082905060005b600082146128cc5780806128b5906145df565b915050600a826128c59190614421565b91506128a2565b60008167ffffffffffffffff81111561290e577f4e487b7100000000000000000000000000000000000000000000000000000000600052604160045260246000fd5b6040519080825280601f01601f1916602001820160405280156129405781602001600182028036833780820191505090505b5090505b600085146129f35760018261295991906144ac565b9150600a85612968919061463c565b60306129749190614394565b60f81b8183815181106129b0577f4e487b7100000000000000000000000000000000000000000000000000000000600052603260045260246000fd5b60200101907effffffffffffffffffffffffffffffffffffffffffffffffffffffffffffff1916908160001a905350600a856129ec9190614421565b9450612944565b8093505050505b919050565b600084848484604051602001612a189493929190613f95565b6040516020818303038152906040528051906020012060001c9050949350505050565b60008282604051602001612a50929190613cf4565b60405160208183030381529060405280519060200120905092915050565b612a788383612adc565b612a8560008484846126bb565b612ac4576040517f08c379a0000000000000000000000000000000000000000000000000000000008152600401612abb90613ffc565b60405180910390fd5b505050565b600080823b905060008111915050919050565b600073ffffffffffffffffffffffffffffffffffffffff168273ffffffffffffffffffffffffffffffffffffffff161415612b4c576040517f08c379a0000000000000000000000000000000000000000000000000000000008152600401612b439061413c565b60405180910390fd5b612b5581611b1d565b15612b95576040517f08c379a0000000000000000000000000000000000000000000000000000000008152600401612b8c9061401c565b60405180910390fd5b612ba160008383612698565b6001600360008473ffffffffffffffffffffffffffffffffffffffff1673ffffffffffffffffffffffffffffffffffffffff1681526020019081526020016000206000828254612bf19190614394565b92505081905550816002600083815260200190815260200160002060006101000a81548173ffffffffffffffffffffffffffffffffffffffff021916908373ffffffffffffffffffffffffffffffffffffffff160217905550808273ffffffffffffffffffffffffffffffffffffffff16600073ffffffffffffffffffffffffffffffffffffffff167fddf252ad1be2c89b69c2b068fc378daa952ba7f163c4a11628f55a4df523b3ef60405160405180910390a45050565b828054612cb6906145ad565b90600052602060002090601f016020900481019282612cd85760008555612d1f565b82601f10612cf157805160ff1916838001178555612d1f565b82800160010185558215612d1f579182015b82811115612d1e578251825591602001919060010190612d03565b5b509050612d2c9190612d30565b5090565b5b80821115612d49576000816000905550600101612d31565b5090565b6000612d60612d5b846142f1565b6142c0565b905082815260208101848484011115612d7857600080fd5b612d8384828561456b565b509392505050565b6000612d9e612d9984614321565b6142c0565b905082815260208101848484011115612db657600080fd5b612dc184828561456b565b509392505050565b600081359050612dd88161473a565b92915050565b600081359050612ded81614751565b92915050565b600081519050612e0281614751565b92915050565b600081359050612e1781614768565b92915050565b600081359050612e2c8161477f565b92915050565b600081519050612e418161477f565b92915050565b600082601f830112612e5857600080fd5b8135612e68848260208601612d4d565b91505092915050565b600082601f830112612e8257600080fd5b8135612e92848260208601612d8b565b91505092915050565b600081359050612eaa81614796565b92915050565b600060208284031215612ec257600080fd5b6000612ed084828501612dc9565b91505092915050565b60008060408385031215612eec57600080fd5b6000612efa85828601612dc9565b9250506020612f0b85828601612dc9565b9150509250929050565b600080600060608486031215612f2a57600080fd5b6000612f3886828701612dc9565b9350506020612f4986828701612dc9565b9250506040612f5a86828701612e9b565b9150509250925092565b60008060008060808587031215612f7a57600080fd5b6000612f8887828801612dc9565b9450506020612f9987828801612dc9565b9350506040612faa87828801612e9b565b925050606085013567ffffffffffffffff811115612fc757600080fd5b612fd387828801612e47565b91505092959194509250565b60008060408385031215612ff257600080fd5b600061300085828601612dc9565b925050602061301185828601612dde565b9150509250929050565b6000806040838503121561302e57600080fd5b600061303c85828601612dc9565b925050602061304d85828601612e9b565b9150509250929050565b60006020828403121561306957600080fd5b600061307784828501612df3565b91505092915050565b60006020828403121561309257600080fd5b60006130a084828501612e08565b91505092915050565b600080604083850312156130bc57600080fd5b60006130ca85828601612e08565b92505060206130db85828601612e9b565b9150509250929050565b6000602082840312156130f757600080fd5b600061310584828501612e1d565b91505092915050565b60006020828403121561312057600080fd5b600061312e84828501612e32565b91505092915050565b60006020828403121561314957600080fd5b600082013567ffffffffffffffff81111561316357600080fd5b61316f84828501612e71565b91505092915050565b60006020828403121561318a57600080fd5b600061319884828501612e9b565b91505092915050565b6131aa816144e0565b82525050565b6131b9816144f2565b82525050565b6131c8816144fe565b82525050565b6131df6131da826144fe565b614628565b82525050565b60006131f082614351565b6131fa8185614367565b935061320a81856020860161457a565b61321381614729565b840191505092915050565b60006132298261435c565b6132338185614378565b935061324381856020860161457a565b61324c81614729565b840191505092915050565b60006132628261435c565b61326c8185614389565b935061327c81856020860161457a565b80840191505092915050565b6000613295603283614378565b91507f4552433732313a207472616e7366657220746f206e6f6e20455243373231526560008301527f63656976657220696d706c656d656e74657200000000000000000000000000006020830152604082019050919050565b60006132fb601c83614378565b91507f4552433732313a20746f6b656e20616c7265616479206d696e746564000000006000830152602082019050919050565b600061333b602483614378565b91507f4552433732313a207472616e7366657220746f20746865207a65726f2061646460008301527f72657373000000000000000000000000000000000000000000000000000000006020830152604082019050919050565b60006133a1601983614378565b91507f4552433732313a20617070726f766520746f2063616c6c6572000000000000006000830152602082019050919050565b60006133e1602483614378565b91507f746f6b656e55524920697320616c726561647920616c6c20736574206d79206d60008301527f616e2021000000000000000000000000000000000000000000000000000000006020830152604082019050919050565b6000613447602c83614378565b91507f4552433732313a206f70657261746f7220717565727920666f72206e6f6e657860008301527f697374656e7420746f6b656e00000000000000000000000000000000000000006020830152604082019050919050565b60006134ad603783614389565b91507f226465736372697074696f6e223a2022412072616e646f6d204e465420666f7260008301527f2061206d6f64756c617220636f6d6d756e697479222c200000000000000000006020830152603782019050919050565b6000613513600183614389565b91507f20000000000000000000000000000000000000000000000000000000000000006000830152600182019050919050565b6000613553603883614378565b91507f4552433732313a20617070726f76652063616c6c6572206973206e6f74206f7760008301527f6e6572206e6f7220617070726f76656420666f7220616c6c00000000000000006020830152604082019050919050565b60006135b9602a83614378565b91507f4552433732313a2062616c616e636520717565727920666f7220746865207a6560008301527f726f2061646472657373000000000000000000000000000000000000000000006020830152604082019050919050565b600061361f602983614378565b91507f4552433732313a206f776e657220717565727920666f72206e6f6e657869737460008301527f656e7420746f6b656e00000000000000000000000000000000000000000000006020830152604082019050919050565b6000613685602e83614378565b91507f45524337323155524953746f726167653a2055524920736574206f66206e6f6e60008301527f6578697374656e7420746f6b656e0000000000000000000000000000000000006020830152604082019050919050565b60006136eb600283614389565b91507f227d0000000000000000000000000000000000000000000000000000000000006000830152600282019050919050565b600061372b602083614378565b91507f4552433732313a206d696e7420746f20746865207a65726f20616464726573736000830152602082019050919050565b600061376b603183614378565b91507f45524337323155524953746f726167653a2055524920717565727920666f722060008301527f6e6f6e6578697374656e7420746f6b656e0000000000000000000000000000006020830152604082019050919050565b60006137d1602c83614378565b91507f4552433732313a20617070726f76656420717565727920666f72206e6f6e657860008301527f697374656e7420746f6b656e00000000000000000000000000000000000000006020830152604082019050919050565b6000613837602983614378565b91507f4552433732313a207472616e73666572206f6620746f6b656e2074686174206960008301527f73206e6f74206f776e00000000000000000000000000000000000000000000006020830152604082019050919050565b600061389d602f83614378565b91507f4552433732314d657461646174613a2055524920717565727920666f72206e6f60008301527f6e6578697374656e7420746f6b656e00000000000000000000000000000000006020830152604082019050919050565b6000613903603083614389565b91507f3c73766720786d6c6e733d22687474703a2f2f7777772e77332e6f72672f323060008301527f30302f73766722206865696768743d22000000000000000000000000000000006020830152603082019050919050565b6000613969601f83614378565b91507f4f6e6c7920565246436f6f7264696e61746f722063616e2066756c66696c6c006000830152602082019050919050565b60006139a9600383614389565b91507f222f3e00000000000000000000000000000000000000000000000000000000006000830152600382019050919050565b60006139e9602183614378565b91507f4552433732313a20617070726f76616c20746f2063757272656e74206f776e6560008301527f72000000000000000000000000000000000000000000000000000000000000006020830152604082019050919050565b6000613a4f601d83614389565b91507f222066696c6c3d227472616e73706172656e7422207374726f6b653d220000006000830152601d82019050919050565b6000613a8f603183614378565b91507f4552433732313a207472616e736665722063616c6c6572206973206e6f74206f60008301527f776e6572206e6f7220617070726f7665640000000000000000000000000000006020830152604082019050919050565b6000613af5603c83614378565b91507f746f6b656e496420686173206e6f74206265656e206d696e746564207965742c60008301527f20776861742061726520796f7520646f696e67206d79206d616e203f000000006020830152604082019050919050565b6000613b5b600283614389565b91507f223e0000000000000000000000000000000000000000000000000000000000006000830152600282019050919050565b6000613b9b600a83614389565b91507f22696d616765223a2022000000000000000000000000000000000000000000006000830152600a82019050919050565b6000613bdb600683614389565b91507f3c2f7376673e00000000000000000000000000000000000000000000000000006000830152600682019050919050565b6000613c1b600983614389565b91507f222077696474683d2200000000000000000000000000000000000000000000006000830152600982019050919050565b6000613c5b601483614389565b91507f7b226e616d65223a20224d6f64756c6172222c200000000000000000000000006000830152601482019050919050565b6000613c9b601e83614378565b91507f4e65656420746f207761697420666f7220436861696e6c696e6b2056524600006000830152602082019050919050565b613cd781614554565b82525050565b613cee613ce982614554565b614632565b82525050565b6000613d0082856131ce565b602082019150613d108284613cdd565b6020820191508190509392505050565b6000613d2c8284613257565b915081905092915050565b6000613d438285613257565b9150613d4f8284613257565b91508190509392505050565b6000613d678286613257565b9150613d7282613506565b9150613d7e8285613257565b9150613d8982613506565b9150613d958284613257565b9150613da082613506565b9150819050949350505050565b6000613db98285613257565b9150613dc482613a42565b9150613dd08284613257565b9150613ddb8261399c565b91508190509392505050565b6000613df38284613257565b9150613dfe82613bce565b915081905092915050565b6000613e14826138f6565b9150613e208285613257565b9150613e2b82613c0e565b9150613e378284613257565b9150613e4282613b4e565b91508190509392505050565b6000613e5982613c4e565b9150613e64826134a0565b9150613e6f82613b8e565b9150613e7b8284613257565b9150613e86826136de565b915081905092915050565b6000602082019050613ea660008301846131a1565b92915050565b6000608082019050613ec160008301876131a1565b613ece60208301866131a1565b613edb6040830185613cce565b8181036060830152613eed81846131e5565b905095945050505050565b6000606082019050613f0d60008301866131a1565b613f1a6020830185613cce565b8181036040830152613f2c81846131e5565b9050949350505050565b6000602082019050613f4b60008301846131b0565b92915050565b6000602082019050613f6660008301846131bf565b92915050565b6000604082019050613f8160008301856131bf565b613f8e6020830184613cce565b9392505050565b6000608082019050613faa60008301876131bf565b613fb76020830186613cce565b613fc460408301856131a1565b613fd16060830184613cce565b95945050505050565b60006020820190508181036000830152613ff4818461321e565b905092915050565b6000602082019050818103600083015261401581613288565b9050919050565b60006020820190508181036000830152614035816132ee565b9050919050565b600060208201905081810360008301526140558161332e565b9050919050565b6000602082019050818103600083015261407581613394565b9050919050565b60006020820190508181036000830152614095816133d4565b9050919050565b600060208201905081810360008301526140b58161343a565b9050919050565b600060208201905081810360008301526140d581613546565b9050919050565b600060208201905081810360008301526140f5816135ac565b9050919050565b6000602082019050818103600083015261411581613612565b9050919050565b6000602082019050818103600083015261413581613678565b9050919050565b600060208201905081810360008301526141558161371e565b9050919050565b600060208201905081810360008301526141758161375e565b9050919050565b60006020820190508181036000830152614195816137c4565b9050919050565b600060208201905081810360008301526141b58161382a565b9050919050565b600060208201905081810360008301526141d581613890565b9050919050565b600060208201905081810360008301526141f58161395c565b9050919050565b60006020820190508181036000830152614215816139dc565b9050919050565b6000602082019050818103600083015261423581613a82565b9050919050565b6000602082019050818103600083015261425581613ae8565b9050919050565b6000602082019050818103600083015261427581613c8e565b9050919050565b60006020820190506142916000830184613cce565b92915050565b60006040820190506142ac6000830185613cce565b6142b96020830184613cce565b9392505050565b6000604051905081810181811067ffffffffffffffff821117156142e7576142e66146fa565b5b8060405250919050565b600067ffffffffffffffff82111561430c5761430b6146fa565b5b601f19601f8301169050602081019050919050565b600067ffffffffffffffff82111561433c5761433b6146fa565b5b601f19601f8301169050602081019050919050565b600081519050919050565b600081519050919050565b600082825260208201905092915050565b600082825260208201905092915050565b600081905092915050565b600061439f82614554565b91506143aa83614554565b9250827fffffffffffffffffffffffffffffffffffffffffffffffffffffffffffffffff038211156143df576143de61466d565b5b828201905092915050565b60006143f58261455e565b91506144008361455e565b92508260ff038211156144165761441561466d565b5b828201905092915050565b600061442c82614554565b915061443783614554565b9250826144475761444661469c565b5b828204905092915050565b600061445d82614554565b915061446883614554565b9250817fffffffffffffffffffffffffffffffffffffffffffffffffffffffffffffffff04831182151516156144a1576144a061466d565b5b828202905092915050565b60006144b782614554565b91506144c283614554565b9250828210156144d5576144d461466d565b5b828203905092915050565b60006144eb82614534565b9050919050565b60008115159050919050565b6000819050919050565b60007fffffffff0000000000000000000000000000000000000000000000000000000082169050919050565b600073ffffffffffffffffffffffffffffffffffffffff82169050919050565b6000819050919050565b600060ff82169050919050565b82818337600083830152505050565b60005b8381101561459857808201518184015260208101905061457d565b838111156145a7576000848401525b50505050565b600060028204905060018216806145c557607f821691505b602082108114156145d9576145d86146cb565b5b50919050565b60006145ea82614554565b91507fffffffffffffffffffffffffffffffffffffffffffffffffffffffffffffffff82141561461d5761461c61466d565b5b600182019050919050565b6000819050919050565b6000819050919050565b600061464782614554565b915061465283614554565b9250826146625761466161469c565b5b828206905092915050565b7f4e487b7100000000000000000000000000000000000000000000000000000000600052601160045260246000fd5b7f4e487b7100000000000000000000000000000000000000000000000000000000600052601260045260246000fd5b7f4e487b7100000000000000000000000000000000000000000000000000000000600052602260045260246000fd5b7f4e487b7100000000000000000000000000000000000000000000000000000000600052604160045260246000fd5b6000601f19601f8301169050919050565b614743816144e0565b811461474e57600080fd5b50565b61475a816144f2565b811461476557600080fd5b50565b614771816144fe565b811461477c57600080fd5b50565b61478881614508565b811461479357600080fd5b50565b61479f81614554565b81146147aa57600080fd5b5056fe4142434445464748494a4b4c4d4e4f505152535455565758595a6162636465666768696a6b6c6d6e6f707172737475767778797a303132333435363738392b2fa2646970667358221220138b7a0662fcb402ff956e540ff72fd1c8f70c6755cbccc58aed7468116685b364736f6c63430008000033",
  "devdoc": {
    "kind": "dev",
    "methods": {
      "approve(address,uint256)": {
        "details": "See {IERC721-approve}."
      },
      "balanceOf(address)": {
        "details": "See {IERC721-balanceOf}."
      },
      "getApproved(uint256)": {
        "details": "See {IERC721-getApproved}."
      },
      "isApprovedForAll(address,address)": {
        "details": "See {IERC721-isApprovedForAll}."
      },
      "name()": {
        "details": "See {IERC721Metadata-name}."
      },
      "ownerOf(uint256)": {
        "details": "See {IERC721-ownerOf}."
      },
      "safeTransferFrom(address,address,uint256)": {
        "details": "See {IERC721-safeTransferFrom}."
      },
      "safeTransferFrom(address,address,uint256,bytes)": {
        "details": "See {IERC721-safeTransferFrom}."
      },
      "setApprovalForAll(address,bool)": {
        "details": "See {IERC721-setApprovalForAll}."
      },
      "supportsInterface(bytes4)": {
        "details": "See {IERC165-supportsInterface}."
      },
      "symbol()": {
        "details": "See {IERC721Metadata-symbol}."
      },
      "tokenURI(uint256)": {
        "details": "See {IERC721Metadata-tokenURI}."
      },
      "transferFrom(address,address,uint256)": {
        "details": "See {IERC721-transferFrom}."
      }
    },
    "version": 1
  },
  "userdoc": {
    "kind": "user",
    "methods": {},
    "version": 1
  },
  "storageLayout": {
    "storage": [
      {
        "astId": 291,
        "contract": "contracts/RandomSVG.sol:RandomSVG",
        "label": "_name",
        "offset": 0,
        "slot": "0",
        "type": "t_string_storage"
      },
      {
        "astId": 293,
        "contract": "contracts/RandomSVG.sol:RandomSVG",
        "label": "_symbol",
        "offset": 0,
        "slot": "1",
        "type": "t_string_storage"
      },
      {
        "astId": 297,
        "contract": "contracts/RandomSVG.sol:RandomSVG",
        "label": "_owners",
        "offset": 0,
        "slot": "2",
        "type": "t_mapping(t_uint256,t_address)"
      },
      {
        "astId": 301,
        "contract": "contracts/RandomSVG.sol:RandomSVG",
        "label": "_balances",
        "offset": 0,
        "slot": "3",
        "type": "t_mapping(t_address,t_uint256)"
      },
      {
        "astId": 305,
        "contract": "contracts/RandomSVG.sol:RandomSVG",
        "label": "_tokenApprovals",
        "offset": 0,
        "slot": "4",
        "type": "t_mapping(t_uint256,t_address)"
      },
      {
        "astId": 311,
        "contract": "contracts/RandomSVG.sol:RandomSVG",
        "label": "_operatorApprovals",
        "offset": 0,
        "slot": "5",
        "type": "t_mapping(t_address,t_mapping(t_address,t_bool))"
      },
      {
        "astId": 1228,
        "contract": "contracts/RandomSVG.sol:RandomSVG",
        "label": "_tokenURIs",
        "offset": 0,
        "slot": "6",
        "type": "t_mapping(t_uint256,t_string_storage)"
      },
      {
        "astId": 79,
        "contract": "contracts/RandomSVG.sol:RandomSVG",
        "label": "nonces",
        "offset": 0,
        "slot": "7",
        "type": "t_mapping(t_bytes32,t_uint256)"
      },
      {
        "astId": 2054,
        "contract": "contracts/RandomSVG.sol:RandomSVG",
        "label": "keyHash",
        "offset": 0,
        "slot": "8",
        "type": "t_bytes32"
      },
      {
        "astId": 2056,
        "contract": "contracts/RandomSVG.sol:RandomSVG",
        "label": "fee",
        "offset": 0,
        "slot": "9",
        "type": "t_uint256"
      },
      {
        "astId": 2058,
        "contract": "contracts/RandomSVG.sol:RandomSVG",
        "label": "tokenCounter",
        "offset": 0,
        "slot": "10",
        "type": "t_uint256"
      },
      {
        "astId": 2060,
        "contract": "contracts/RandomSVG.sol:RandomSVG",
        "label": "maxNumberOfPath",
        "offset": 0,
        "slot": "11",
        "type": "t_uint256"
      },
      {
        "astId": 2062,
        "contract": "contracts/RandomSVG.sol:RandomSVG",
        "label": "maxNumberOfPathCommands",
        "offset": 0,
        "slot": "12",
        "type": "t_uint256"
      },
      {
        "astId": 2064,
        "contract": "contracts/RandomSVG.sol:RandomSVG",
        "label": "size",
        "offset": 0,
        "slot": "13",
        "type": "t_uint256"
      },
      {
        "astId": 2067,
        "contract": "contracts/RandomSVG.sol:RandomSVG",
        "label": "pathCommands",
        "offset": 0,
        "slot": "14",
        "type": "t_array(t_string_storage)dyn_storage"
      },
      {
        "astId": 2070,
        "contract": "contracts/RandomSVG.sol:RandomSVG",
        "label": "colors",
        "offset": 0,
        "slot": "15",
        "type": "t_array(t_string_storage)dyn_storage"
      },
      {
        "astId": 2074,
        "contract": "contracts/RandomSVG.sol:RandomSVG",
        "label": "requestIdToSender",
        "offset": 0,
        "slot": "16",
        "type": "t_mapping(t_bytes32,t_address)"
      },
      {
        "astId": 2078,
        "contract": "contracts/RandomSVG.sol:RandomSVG",
        "label": "requestIdToTokenId",
        "offset": 0,
        "slot": "17",
        "type": "t_mapping(t_bytes32,t_uint256)"
      },
      {
        "astId": 2082,
        "contract": "contracts/RandomSVG.sol:RandomSVG",
        "label": "tokenIdToRandomNumber",
        "offset": 0,
        "slot": "18",
        "type": "t_mapping(t_uint256,t_uint256)"
      }
    ],
    "types": {
      "t_address": {
        "encoding": "inplace",
        "label": "address",
        "numberOfBytes": "20"
      },
      "t_array(t_string_storage)dyn_storage": {
        "base": "t_string_storage",
        "encoding": "dynamic_array",
        "label": "string[]",
        "numberOfBytes": "32"
      },
      "t_bool": {
        "encoding": "inplace",
        "label": "bool",
        "numberOfBytes": "1"
      },
      "t_bytes32": {
        "encoding": "inplace",
        "label": "bytes32",
        "numberOfBytes": "32"
      },
      "t_mapping(t_address,t_bool)": {
        "encoding": "mapping",
        "key": "t_address",
        "label": "mapping(address => bool)",
        "numberOfBytes": "32",
        "value": "t_bool"
      },
      "t_mapping(t_address,t_mapping(t_address,t_bool))": {
        "encoding": "mapping",
        "key": "t_address",
        "label": "mapping(address => mapping(address => bool))",
        "numberOfBytes": "32",
        "value": "t_mapping(t_address,t_bool)"
      },
      "t_mapping(t_address,t_uint256)": {
        "encoding": "mapping",
        "key": "t_address",
        "label": "mapping(address => uint256)",
        "numberOfBytes": "32",
        "value": "t_uint256"
      },
      "t_mapping(t_bytes32,t_address)": {
        "encoding": "mapping",
        "key": "t_bytes32",
        "label": "mapping(bytes32 => address)",
        "numberOfBytes": "32",
        "value": "t_address"
      },
      "t_mapping(t_bytes32,t_uint256)": {
        "encoding": "mapping",
        "key": "t_bytes32",
        "label": "mapping(bytes32 => uint256)",
        "numberOfBytes": "32",
        "value": "t_uint256"
      },
      "t_mapping(t_uint256,t_address)": {
        "encoding": "mapping",
        "key": "t_uint256",
        "label": "mapping(uint256 => address)",
        "numberOfBytes": "32",
        "value": "t_address"
      },
      "t_mapping(t_uint256,t_string_storage)": {
        "encoding": "mapping",
        "key": "t_uint256",
        "label": "mapping(uint256 => string)",
        "numberOfBytes": "32",
        "value": "t_string_storage"
      },
      "t_mapping(t_uint256,t_uint256)": {
        "encoding": "mapping",
        "key": "t_uint256",
        "label": "mapping(uint256 => uint256)",
        "numberOfBytes": "32",
        "value": "t_uint256"
      },
      "t_string_storage": {
        "encoding": "bytes",
        "label": "string",
        "numberOfBytes": "32"
      },
      "t_uint256": {
        "encoding": "inplace",
        "label": "uint256",
        "numberOfBytes": "32"
      }
    }
  }
}